{
  "_format": "hh-sol-artifact-1",
  "contractName": "MarketItem",
  "sourceName": "contracts/MarketItem.sol",
  "abi": [
    {
      "inputs": [],
      "stateMutability": "nonpayable",
      "type": "constructor"
    },
    {
      "anonymous": false,
      "inputs": [
        {
          "indexed": true,
          "internalType": "address",
          "name": "owner",
          "type": "address"
        },
        {
          "indexed": true,
          "internalType": "address",
          "name": "approved",
          "type": "address"
        },
        {
          "indexed": true,
          "internalType": "uint256",
          "name": "tokenId",
          "type": "uint256"
        }
      ],
      "name": "Approval",
      "type": "event"
    },
    {
      "anonymous": false,
      "inputs": [
        {
          "indexed": true,
          "internalType": "address",
          "name": "owner",
          "type": "address"
        },
        {
          "indexed": true,
          "internalType": "address",
          "name": "operator",
          "type": "address"
        },
        {
          "indexed": false,
          "internalType": "bool",
          "name": "approved",
          "type": "bool"
        }
      ],
      "name": "ApprovalForAll",
      "type": "event"
    },
    {
      "anonymous": false,
      "inputs": [
        {
          "indexed": true,
          "internalType": "address",
          "name": "previousOwner",
          "type": "address"
        },
        {
          "indexed": true,
          "internalType": "address",
          "name": "newOwner",
          "type": "address"
        }
      ],
      "name": "OwnershipTransferred",
      "type": "event"
    },
    {
      "anonymous": false,
      "inputs": [
        {
          "indexed": true,
          "internalType": "address",
          "name": "from",
          "type": "address"
        },
        {
          "indexed": true,
          "internalType": "address",
          "name": "to",
          "type": "address"
        },
        {
          "indexed": true,
          "internalType": "uint256",
          "name": "tokenId",
          "type": "uint256"
        }
      ],
      "name": "Transfer",
      "type": "event"
    },
    {
      "inputs": [
        {
          "internalType": "address",
          "name": "to",
          "type": "address"
        },
        {
          "internalType": "uint256",
          "name": "tokenId",
          "type": "uint256"
        }
      ],
      "name": "approve",
      "outputs": [],
      "stateMutability": "nonpayable",
      "type": "function"
    },
    {
      "inputs": [
        {
          "internalType": "address",
          "name": "owner",
          "type": "address"
        }
      ],
      "name": "balanceOf",
      "outputs": [
        {
          "internalType": "uint256",
          "name": "",
          "type": "uint256"
        }
      ],
      "stateMutability": "view",
      "type": "function"
    },
    {
      "inputs": [
        {
          "internalType": "uint256",
          "name": "tokenId",
          "type": "uint256"
        }
      ],
      "name": "getApproved",
      "outputs": [
        {
          "internalType": "address",
          "name": "",
          "type": "address"
        }
      ],
      "stateMutability": "view",
      "type": "function"
    },
    {
      "inputs": [
        {
          "internalType": "address",
          "name": "owner",
          "type": "address"
        },
        {
          "internalType": "address",
          "name": "operator",
          "type": "address"
        }
      ],
      "name": "isApprovedForAll",
      "outputs": [
        {
          "internalType": "bool",
          "name": "",
          "type": "bool"
        }
      ],
      "stateMutability": "view",
      "type": "function"
    },
    {
      "inputs": [],
      "name": "name",
      "outputs": [
        {
          "internalType": "string",
          "name": "",
          "type": "string"
        }
      ],
      "stateMutability": "view",
      "type": "function"
    },
    {
      "inputs": [],
      "name": "owner",
      "outputs": [
        {
          "internalType": "address",
          "name": "",
          "type": "address"
        }
      ],
      "stateMutability": "view",
      "type": "function"
    },
    {
      "inputs": [
        {
          "internalType": "uint256",
          "name": "tokenId",
          "type": "uint256"
        }
      ],
      "name": "ownerOf",
      "outputs": [
        {
          "internalType": "address",
          "name": "",
          "type": "address"
        }
      ],
      "stateMutability": "view",
      "type": "function"
    },
    {
      "inputs": [],
      "name": "renounceOwnership",
      "outputs": [],
      "stateMutability": "nonpayable",
      "type": "function"
    },
    {
      "inputs": [
        {
          "internalType": "address",
          "name": "to",
          "type": "address"
        },
        {
          "internalType": "string",
          "name": "uri",
          "type": "string"
        }
      ],
      "name": "safeMint",
      "outputs": [
        {
          "internalType": "uint256",
          "name": "",
          "type": "uint256"
        }
      ],
      "stateMutability": "nonpayable",
      "type": "function"
    },
    {
      "inputs": [
        {
          "internalType": "address",
          "name": "from",
          "type": "address"
        },
        {
          "internalType": "address",
          "name": "to",
          "type": "address"
        },
        {
          "internalType": "uint256",
          "name": "tokenId",
          "type": "uint256"
        }
      ],
      "name": "safeTransferFrom",
      "outputs": [],
      "stateMutability": "nonpayable",
      "type": "function"
    },
    {
      "inputs": [
        {
          "internalType": "address",
          "name": "from",
          "type": "address"
        },
        {
          "internalType": "address",
          "name": "to",
          "type": "address"
        },
        {
          "internalType": "uint256",
          "name": "tokenId",
          "type": "uint256"
        },
        {
          "internalType": "bytes",
          "name": "data",
          "type": "bytes"
        }
      ],
      "name": "safeTransferFrom",
      "outputs": [],
      "stateMutability": "nonpayable",
      "type": "function"
    },
    {
      "inputs": [
        {
          "internalType": "address",
          "name": "operator",
          "type": "address"
        },
        {
          "internalType": "bool",
          "name": "approved",
          "type": "bool"
        }
      ],
      "name": "setApprovalForAll",
      "outputs": [],
      "stateMutability": "nonpayable",
      "type": "function"
    },
    {
      "inputs": [
        {
          "internalType": "bytes4",
          "name": "interfaceId",
          "type": "bytes4"
        }
      ],
      "name": "supportsInterface",
      "outputs": [
        {
          "internalType": "bool",
          "name": "",
          "type": "bool"
        }
      ],
      "stateMutability": "view",
      "type": "function"
    },
    {
      "inputs": [],
      "name": "symbol",
      "outputs": [
        {
          "internalType": "string",
          "name": "",
          "type": "string"
        }
      ],
      "stateMutability": "view",
      "type": "function"
    },
    {
      "inputs": [
        {
          "internalType": "uint256",
          "name": "",
          "type": "uint256"
        }
      ],
      "name": "tokenIds",
      "outputs": [
        {
          "internalType": "uint256",
          "name": "",
          "type": "uint256"
        }
      ],
      "stateMutability": "view",
      "type": "function"
    },
    {
      "inputs": [
        {
          "internalType": "uint256",
          "name": "tokenId",
          "type": "uint256"
        }
      ],
      "name": "tokenURI",
      "outputs": [
        {
          "internalType": "string",
          "name": "",
          "type": "string"
        }
      ],
      "stateMutability": "view",
      "type": "function"
    },
    {
      "inputs": [
        {
          "internalType": "address",
          "name": "from",
          "type": "address"
        },
        {
          "internalType": "address",
          "name": "to",
          "type": "address"
        },
        {
          "internalType": "uint256",
          "name": "tokenId",
          "type": "uint256"
        }
      ],
      "name": "transferFrom",
      "outputs": [],
      "stateMutability": "nonpayable",
      "type": "function"
    },
    {
      "inputs": [
        {
          "internalType": "address",
          "name": "newOwner",
          "type": "address"
        }
      ],
      "name": "transferOwnership",
      "outputs": [],
      "stateMutability": "nonpayable",
      "type": "function"
    }
  ],
  "bytecode": "0x60806040523480156200001157600080fd5b50604080518082018252600a8152694d61726b65744974656d60b01b6020808301918252835180850190945260038452624d544b60e81b9084015281519192916200005f91600091620000ee565b50805162000075906001906020840190620000ee565b505050620000926200008c6200009860201b60201c565b6200009c565b620001d1565b3390565b600780546001600160a01b038381166001600160a01b0319831681179093556040519116919082907f8be0079c531659141344cd1fd0a4f28419497f9722a3daafe3b4186f6b6457e090600090a35050565b828054620000fc9062000194565b90600052602060002090601f0160209004810192826200012057600085556200016b565b82601f106200013b57805160ff19168380011785556200016b565b828001600101855582156200016b579182015b828111156200016b5782518255916020019190600101906200014e565b50620001799291506200017d565b5090565b5b808211156200017957600081556001016200017e565b600181811c90821680620001a957607f821691505b60208210811415620001cb57634e487b7160e01b600052602260045260246000fd5b50919050565b6118ef80620001e16000396000f3fe608060405234801561001057600080fd5b50600436106101165760003560e01c80638da5cb5b116100a2578063c87b56dd11610071578063c87b56dd14610239578063d204c45e1461024c578063d58778d61461025f578063e985e9c514610272578063f2fde38b146102ae57600080fd5b80638da5cb5b146101fa57806395d89b411461020b578063a22cb46514610213578063b88d4fde1461022657600080fd5b806323b872dd116100e957806323b872dd1461019857806342842e0e146101ab5780636352211e146101be57806370a08231146101d1578063715018a6146101f257600080fd5b806301ffc9a71461011b57806306fdde0314610143578063081812fc14610158578063095ea7b314610183575b600080fd5b61012e6101293660046113b5565b6102c1565b60405190151581526020015b60405180910390f35b61014b610313565b60405161013a919061142a565b61016b61016636600461143d565b6103a5565b6040516001600160a01b03909116815260200161013a565b610196610191366004611472565b6103cc565b005b6101966101a636600461149c565b6104e7565b6101966101b936600461149c565b610518565b61016b6101cc36600461143d565b610533565b6101e46101df3660046114d8565b610593565b60405190815260200161013a565b610196610619565b6007546001600160a01b031661016b565b61014b61062d565b6101966102213660046114f3565b61063c565b6101966102343660046115bb565b61064b565b61014b61024736600461143d565b610683565b6101e461025a366004611637565b61068e565b6101e461026d36600461143d565b6106fa565b61012e610280366004611699565b6001600160a01b03918216600090815260056020908152604080832093909416825291909152205460ff1690565b6101966102bc3660046114d8565b61071b565b60006001600160e01b031982166380ac58cd60e01b14806102f257506001600160e01b03198216635b5e139f60e01b145b8061030d57506301ffc9a760e01b6001600160e01b03198316145b92915050565b606060008054610322906116cc565b80601f016020809104026020016040519081016040528092919081815260200182805461034e906116cc565b801561039b5780601f106103705761010080835404028352916020019161039b565b820191906000526020600020905b81548152906001019060200180831161037e57829003601f168201915b5050505050905090565b60006103b082610794565b506000908152600460205260409020546001600160a01b031690565b60006103d782610533565b9050806001600160a01b0316836001600160a01b0316141561044a5760405162461bcd60e51b815260206004820152602160248201527f4552433732313a20617070726f76616c20746f2063757272656e74206f776e656044820152603960f91b60648201526084015b60405180910390fd5b336001600160a01b038216148061046657506104668133610280565b6104d85760405162461bcd60e51b815260206004820152603d60248201527f4552433732313a20617070726f76652063616c6c6572206973206e6f7420746f60448201527f6b656e206f776e6572206f7220617070726f76656420666f7220616c6c0000006064820152608401610441565b6104e283836107f3565b505050565b6104f13382610861565b61050d5760405162461bcd60e51b815260040161044190611707565b6104e28383836108e0565b6104e28383836040518060200160405280600081525061064b565b6000818152600260205260408120546001600160a01b03168061030d5760405162461bcd60e51b8152602060048201526018602482015277115490cdcc8c4e881a5b9d985b1a59081d1bdad95b88125160421b6044820152606401610441565b60006001600160a01b0382166105fd5760405162461bcd60e51b815260206004820152602960248201527f4552433732313a2061646472657373207a65726f206973206e6f7420612076616044820152683634b21037bbb732b960b91b6064820152608401610441565b506001600160a01b031660009081526003602052604090205490565b610621610a51565b61062b6000610aab565b565b606060018054610322906116cc565b610647338383610afd565b5050565b6106553383610861565b6106715760405162461bcd60e51b815260040161044190611707565b61067d84848484610bcc565b50505050565b606061030d82610bff565b60008061069a60085490565b90506106aa600880546001019055565b6106b48482610d08565b6106be8184610d22565b600980546001810182556000919091527f6e1540171b6c0c960b71a7020d9f60077f6af931a8bbf590da0223dacf75c7af018190559392505050565b6009818154811061070a57600080fd5b600091825260209091200154905081565b610723610a51565b6001600160a01b0381166107885760405162461bcd60e51b815260206004820152602660248201527f4f776e61626c653a206e6577206f776e657220697320746865207a65726f206160448201526564647265737360d01b6064820152608401610441565b61079181610aab565b50565b6000818152600260205260409020546001600160a01b03166107915760405162461bcd60e51b8152602060048201526018602482015277115490cdcc8c4e881a5b9d985b1a59081d1bdad95b88125160421b6044820152606401610441565b600081815260046020526040902080546001600160a01b0319166001600160a01b038416908117909155819061082882610533565b6001600160a01b03167f8c5be1e5ebec7d5bd14f71427d1e84f3dd0314c0f7b2291e5b200ac8c7c3b92560405160405180910390a45050565b60008061086d83610533565b9050806001600160a01b0316846001600160a01b031614806108b457506001600160a01b0380821660009081526005602090815260408083209388168352929052205460ff165b806108d85750836001600160a01b03166108cd846103a5565b6001600160a01b0316145b949350505050565b826001600160a01b03166108f382610533565b6001600160a01b0316146109195760405162461bcd60e51b815260040161044190611754565b6001600160a01b03821661097b5760405162461bcd60e51b8152602060048201526024808201527f4552433732313a207472616e7366657220746f20746865207a65726f206164646044820152637265737360e01b6064820152608401610441565b6109888383836001610dbc565b826001600160a01b031661099b82610533565b6001600160a01b0316146109c15760405162461bcd60e51b815260040161044190611754565b600081815260046020908152604080832080546001600160a01b03199081169091556001600160a01b0387811680865260038552838620805460001901905590871680865283862080546001019055868652600290945282852080549092168417909155905184937fddf252ad1be2c89b69c2b068fc378daa952ba7f163c4a11628f55a4df523b3ef91a4505050565b6007546001600160a01b0316331461062b5760405162461bcd60e51b815260206004820181905260248201527f4f776e61626c653a2063616c6c6572206973206e6f7420746865206f776e65726044820152606401610441565b600780546001600160a01b038381166001600160a01b0319831681179093556040519116919082907f8be0079c531659141344cd1fd0a4f28419497f9722a3daafe3b4186f6b6457e090600090a35050565b816001600160a01b0316836001600160a01b03161415610b5f5760405162461bcd60e51b815260206004820152601960248201527f4552433732313a20617070726f766520746f2063616c6c6572000000000000006044820152606401610441565b6001600160a01b03838116600081815260056020908152604080832094871680845294825291829020805460ff191686151590811790915591519182527f17307eab39ab6107e8899845ad3d59bd9653f200f220920489ca2b5937696c31910160405180910390a3505050565b610bd78484846108e0565b610be384848484610e44565b61067d5760405162461bcd60e51b815260040161044190611799565b6060610c0a82610794565b60008281526006602052604081208054610c23906116cc565b80601f0160208091040260200160405190810160405280929190818152602001828054610c4f906116cc565b8015610c9c5780601f10610c7157610100808354040283529160200191610c9c565b820191906000526020600020905b815481529060010190602001808311610c7f57829003601f168201915b505050505090506000610cba60408051602081019091526000815290565b9050805160001415610ccd575092915050565b815115610cff578082604051602001610ce79291906117eb565b60405160208183030381529060405292505050919050565b6108d884610f51565b610647828260405180602001604052806000815250610fc5565b6000828152600260205260409020546001600160a01b0316610d9d5760405162461bcd60e51b815260206004820152602e60248201527f45524337323155524953746f726167653a2055524920736574206f66206e6f6e60448201526d32bc34b9ba32b73a103a37b5b2b760911b6064820152608401610441565b600082815260066020908152604090912082516104e292840190611306565b600181111561067d576001600160a01b03841615610e02576001600160a01b03841660009081526003602052604081208054839290610dfc908490611830565b90915550505b6001600160a01b0383161561067d576001600160a01b03831660009081526003602052604081208054839290610e39908490611847565b909155505050505050565b60006001600160a01b0384163b15610f4657604051630a85bd0160e11b81526001600160a01b0385169063150b7a0290610e8890339089908890889060040161185f565b602060405180830381600087803b158015610ea257600080fd5b505af1925050508015610ed2575060408051601f3d908101601f19168201909252610ecf9181019061189c565b60015b610f2c573d808015610f00576040519150601f19603f3d011682016040523d82523d6000602084013e610f05565b606091505b508051610f245760405162461bcd60e51b815260040161044190611799565b805181602001fd5b6001600160e01b031916630a85bd0160e11b1490506108d8565b506001949350505050565b6060610f5c82610794565b6000610f7360408051602081019091526000815290565b90506000815111610f935760405180602001604052806000815250610fbe565b80610f9d84610ff8565b604051602001610fae9291906117eb565b6040516020818303038152906040525b9392505050565b610fcf8383611095565b610fdc6000848484610e44565b6104e25760405162461bcd60e51b815260040161044190611799565b606060006110058361122e565b600101905060008167ffffffffffffffff8111156110255761102561152f565b6040519080825280601f01601f19166020018201604052801561104f576020820181803683370190505b5090508181016020015b600019016f181899199a1a9b1b9c1cb0b131b232b360811b600a86061a8153600a85049450846110885761108d565b611059565b509392505050565b6001600160a01b0382166110eb5760405162461bcd60e51b815260206004820181905260248201527f4552433732313a206d696e7420746f20746865207a65726f20616464726573736044820152606401610441565b6000818152600260205260409020546001600160a01b0316156111505760405162461bcd60e51b815260206004820152601c60248201527f4552433732313a20746f6b656e20616c7265616479206d696e746564000000006044820152606401610441565b61115e600083836001610dbc565b6000818152600260205260409020546001600160a01b0316156111c35760405162461bcd60e51b815260206004820152601c60248201527f4552433732313a20746f6b656e20616c7265616479206d696e746564000000006044820152606401610441565b6001600160a01b038216600081815260036020908152604080832080546001019055848352600290915280822080546001600160a01b0319168417905551839291907fddf252ad1be2c89b69c2b068fc378daa952ba7f163c4a11628f55a4df523b3ef908290a45050565b60008072184f03e93ff9f4daa797ed6e38ed64bf6a1f0160401b831061126d5772184f03e93ff9f4daa797ed6e38ed64bf6a1f0160401b830492506040015b6d04ee2d6d415b85acef81000000008310611299576d04ee2d6d415b85acef8100000000830492506020015b662386f26fc1000083106112b757662386f26fc10000830492506010015b6305f5e10083106112cf576305f5e100830492506008015b61271083106112e357612710830492506004015b606483106112f5576064830492506002015b600a831061030d5760010192915050565b828054611312906116cc565b90600052602060002090601f016020900481019282611334576000855561137a565b82601f1061134d57805160ff191683800117855561137a565b8280016001018555821561137a579182015b8281111561137a57825182559160200191906001019061135f565b5061138692915061138a565b5090565b5b80821115611386576000815560010161138b565b6001600160e01b03198116811461079157600080fd5b6000602082840312156113c757600080fd5b8135610fbe8161139f565b60005b838110156113ed5781810151838201526020016113d5565b8381111561067d5750506000910152565b600081518084526114168160208601602086016113d2565b601f01601f19169290920160200192915050565b602081526000610fbe60208301846113fe565b60006020828403121561144f57600080fd5b5035919050565b80356001600160a01b038116811461146d57600080fd5b919050565b6000806040838503121561148557600080fd5b61148e83611456565b946020939093013593505050565b6000806000606084860312156114b157600080fd5b6114ba84611456565b92506114c860208501611456565b9150604084013590509250925092565b6000602082840312156114ea57600080fd5b610fbe82611456565b6000806040838503121561150657600080fd5b61150f83611456565b91506020830135801515811461152457600080fd5b809150509250929050565b634e487b7160e01b600052604160045260246000fd5b600067ffffffffffffffff808411156115605761156061152f565b604051601f8501601f19908116603f011681019082821181831017156115885761158861152f565b816040528093508581528686860111156115a157600080fd5b858560208301376000602087830101525050509392505050565b600080600080608085870312156115d157600080fd5b6115da85611456565b93506115e860208601611456565b925060408501359150606085013567ffffffffffffffff81111561160b57600080fd5b8501601f8101871361161c57600080fd5b61162b87823560208401611545565b91505092959194509250565b6000806040838503121561164a57600080fd5b61165383611456565b9150602083013567ffffffffffffffff81111561166f57600080fd5b8301601f8101851361168057600080fd5b61168f85823560208401611545565b9150509250929050565b600080604083850312156116ac57600080fd5b6116b583611456565b91506116c360208401611456565b90509250929050565b600181811c908216806116e057607f821691505b6020821081141561170157634e487b7160e01b600052602260045260246000fd5b50919050565b6020808252602d908201527f4552433732313a2063616c6c6572206973206e6f7420746f6b656e206f776e6560408201526c1c881bdc88185c1c1c9bdd9959609a1b606082015260800190565b60208082526025908201527f4552433732313a207472616e736665722066726f6d20696e636f72726563742060408201526437bbb732b960d91b606082015260800190565b60208082526032908201527f4552433732313a207472616e7366657220746f206e6f6e20455243373231526560408201527131b2b4bb32b91034b6b83632b6b2b73a32b960711b606082015260800190565b600083516117fd8184602088016113d2565b8351908301906118118183602088016113d2565b01949350505050565b634e487b7160e01b600052601160045260246000fd5b6000828210156118425761184261181a565b500390565b6000821982111561185a5761185a61181a565b500190565b6001600160a01b0385811682528416602082015260408101839052608060608201819052600090611892908301846113fe565b9695505050505050565b6000602082840312156118ae57600080fd5b8151610fbe8161139f56fea2646970667358221220b39d93ea996d3b67954d30cf67568be84fd7d629aa68a5cbbee517c37617201f64736f6c63430008090033",
  "linkReferences": {},
  "deployedLinkReferences": {}
}