{
  "_format": "hh-sol-artifact-1",
  "contractName": "NFTMarketplace",
  "sourceName": "contracts/NFTMarketplace.sol",
  "abi": [
    {
      "inputs": [
        {
          "internalType": "address",
          "name": "_marketItemAddress",
          "type": "address"
        }
      ],
      "stateMutability": "nonpayable",
      "type": "constructor"
    },
    {
      "anonymous": false,
      "inputs": [
        {
          "indexed": true,
          "internalType": "uint256",
          "name": "collectionId",
          "type": "uint256"
        },
        {
          "indexed": false,
          "internalType": "string",
          "name": "collectionName",
          "type": "string"
        }
      ],
      "name": "CollectionCreated",
      "type": "event"
    },
    {
      "anonymous": false,
      "inputs": [
        {
          "indexed": true,
          "internalType": "uint256",
          "name": "tokenId",
          "type": "uint256"
        },
        {
          "indexed": false,
          "internalType": "uint256",
          "name": "collectionId",
          "type": "uint256"
        },
        {
          "indexed": false,
          "internalType": "uint256",
          "name": "price",
          "type": "uint256"
        },
        {
          "indexed": false,
          "internalType": "bool",
          "name": "forSale",
          "type": "bool"
        }
      ],
      "name": "MarketNftCreated",
      "type": "event"
    },
    {
      "inputs": [],
      "name": "LISTING_FEE",
      "outputs": [
        {
          "internalType": "uint256",
          "name": "",
          "type": "uint256"
        }
      ],
      "stateMutability": "view",
      "type": "function"
    },
    {
      "inputs": [
        {
          "internalType": "uint256",
          "name": "_tokenId",
          "type": "uint256"
        }
      ],
      "name": "buyItem",
      "outputs": [],
      "stateMutability": "payable",
      "type": "function"
    },
    {
      "inputs": [
        {
          "internalType": "uint256",
          "name": "_tokenId",
          "type": "uint256"
        }
      ],
      "name": "cancelItem",
      "outputs": [],
      "stateMutability": "nonpayable",
      "type": "function"
    },
    {
      "inputs": [
        {
          "internalType": "uint256",
          "name": "",
          "type": "uint256"
        }
      ],
      "name": "collectionIds",
      "outputs": [
        {
          "internalType": "uint256",
          "name": "",
          "type": "uint256"
        }
      ],
      "stateMutability": "view",
      "type": "function"
    },
    {
      "inputs": [
        {
          "internalType": "uint256",
          "name": "",
          "type": "uint256"
        }
      ],
      "name": "collectionLedger",
      "outputs": [
        {
          "internalType": "string",
          "name": "collectionName",
          "type": "string"
        }
      ],
      "stateMutability": "view",
      "type": "function"
    },
    {
      "inputs": [
        {
          "internalType": "string",
          "name": "_collectionName",
          "type": "string"
        }
      ],
      "name": "createCollection",
      "outputs": [],
      "stateMutability": "nonpayable",
      "type": "function"
    },
    {
      "inputs": [
        {
          "internalType": "uint256",
          "name": "_collectionId",
          "type": "uint256"
        },
        {
          "internalType": "string",
          "name": "_uri",
          "type": "string"
        }
      ],
      "name": "createMarketItem",
      "outputs": [],
      "stateMutability": "nonpayable",
      "type": "function"
    },
    {
      "inputs": [],
      "name": "getCollectionIdsCount",
      "outputs": [
        {
          "internalType": "uint256",
          "name": "",
          "type": "uint256"
        }
      ],
      "stateMutability": "view",
      "type": "function"
    },
    {
      "inputs": [],
      "name": "getNftIdsCount",
      "outputs": [
        {
          "internalType": "uint256",
          "name": "",
          "type": "uint256"
        }
      ],
      "stateMutability": "view",
      "type": "function"
    },
    {
      "inputs": [
        {
          "internalType": "uint256",
          "name": "_tokenId",
          "type": "uint256"
        },
        {
          "internalType": "uint256",
          "name": "_price",
          "type": "uint256"
        }
      ],
      "name": "listItem",
      "outputs": [],
      "stateMutability": "nonpayable",
      "type": "function"
    },
    {
      "inputs": [
        {
          "internalType": "uint256",
          "name": "",
          "type": "uint256"
        }
      ],
      "name": "nftLedger",
      "outputs": [
        {
          "internalType": "uint256",
          "name": "tokenId",
          "type": "uint256"
        },
        {
          "internalType": "uint256",
          "name": "collectionId",
          "type": "uint256"
        },
        {
          "internalType": "uint256",
          "name": "price",
          "type": "uint256"
        },
        {
          "internalType": "bool",
          "name": "forSale",
          "type": "bool"
        }
      ],
      "stateMutability": "view",
      "type": "function"
    },
    {
      "inputs": [
        {
          "internalType": "uint256",
          "name": "",
          "type": "uint256"
        }
      ],
      "name": "nftLedgerIds",
      "outputs": [
        {
          "internalType": "uint256",
          "name": "",
          "type": "uint256"
        }
      ],
      "stateMutability": "view",
      "type": "function"
    },
    {
      "inputs": [],
      "name": "offerCount",
      "outputs": [
        {
          "internalType": "uint256",
          "name": "",
          "type": "uint256"
        }
      ],
      "stateMutability": "view",
      "type": "function"
    },
    {
      "inputs": [],
      "name": "owner",
      "outputs": [
        {
          "internalType": "address payable",
          "name": "",
          "type": "address"
        }
      ],
      "stateMutability": "view",
      "type": "function"
    },
    {
      "inputs": [
        {
          "internalType": "address",
          "name": "",
          "type": "address"
        }
      ],
      "name": "userFunds",
      "outputs": [
        {
          "internalType": "uint256",
          "name": "",
          "type": "uint256"
        }
      ],
      "stateMutability": "view",
      "type": "function"
    }
  ],
  "bytecode": "0x6080604052655af3107a400060025534801561001a57600080fd5b5060405161125e38038061125e83398101604081905261003991610067565b600080546001600160a01b039092166001600160a01b03199283161790556003805490911633179055610097565b60006020828403121561007957600080fd5b81516001600160a01b038116811461009057600080fd5b9392505050565b6111b8806100a66000396000f3fe6080604052600436106100e85760003560e01c80638da5cb5b1161008a578063c319c0b411610059578063c319c0b4146102a4578063ccd46154146102d1578063e65548a3146102f1578063e7fb74c71461031157600080fd5b80638da5cb5b1461022257806399f8590f1461025a5780639bc0dbb11461026f578063a9b566a31461028457600080fd5b806351563f8e116100c657806351563f8e1461014e57806366ee3afd1461016e5780638387c6e1146101d5578063883efa671461020257600080fd5b8063059dfe13146100ed5780631115c24d1461010f5780632b86ae3814610138575b600080fd5b3480156100f957600080fd5b5061010d610108366004610f4d565b610324565b005b34801561011b57600080fd5b5061012560065481565b6040519081526020015b60405180910390f35b34801561014457600080fd5b5061012560025481565b34801561015a57600080fd5b5061010d610169366004610f8a565b61043a565b34801561017a57600080fd5b506101b3610189366004610f8a565b60096020526000908152604090208054600182015460028301546003909301549192909160ff1684565b604080519485526020850193909352918301521515606082015260800161012f565b3480156101e157600080fd5b506101256101f0366004610fbb565b60076020526000908152604090205481565b34801561020e57600080fd5b5061010d61021d366004610fdf565b61052d565b34801561022e57600080fd5b50600354610242906001600160a01b031681565b6040516001600160a01b03909116815260200161012f565b34801561026657600080fd5b50600454610125565b34801561027b57600080fd5b50600554610125565b34801561029057600080fd5b5061012561029f366004610f8a565b610822565b3480156102b057600080fd5b506102c46102bf366004610f8a565b610843565b60405161012f919061104e565b3480156102dd57600080fd5b5061010d6102ec366004611061565b6108e1565b3480156102fd57600080fd5b5061012561030c366004610f8a565b610a3b565b61010d61031f366004610f8a565b610a4b565b80516103775760405162461bcd60e51b815260206004820152601a60248201527f436f6c6c656374696f6e2063616e6e6f7420626520656d70747900000000000060448201526064015b60405180910390fd5b610385600180546001019055565b600061039060015490565b60408051602080820183528582526000848152600882529290922081518051949550919390926103c4928492910190610e11565b5050600480546001810182556000919091527f8a35acfbc15ff81a39ae7d344fd709f28e8600b4aa8c65c6b64bfe7fe36bd19b018290555060405181907f62b7b5ba11bfc95430fab0460fdf99b9c8fbc2b3a6a48caf79c3ee1b591c03369061042e90859061104e565b60405180910390a25050565b6000546040516331a9108f60e11b81526004810183905230916001600160a01b031690636352211e9060240160206040518083038186803b15801561047e57600080fd5b505afa158015610492573d6000803e3d6000fd5b505050506040513d601f19601f820116820180604052508101906104b691906110a8565b6001600160a01b0316141561050d5760405162461bcd60e51b815260206004820152601960248201527f4f6e6c79206f776e65722063616e2063616e63656c204e667400000000000000604482015260640161036e565b600090815260096020526040812060038101805460ff1916905560020155565b600082815260096020526040902060030154829060ff16156105915760405162461bcd60e51b815260206004820152601e60248201527f4974656d20697320616c7265616479206c697374656420746f2073616c650000604482015260640161036e565b60005460405163020604bf60e21b815260048101859052849130916001600160a01b039091169063081812fc9060240160206040518083038186803b1580156105d957600080fd5b505afa1580156105ed573d6000803e3d6000fd5b505050506040513d601f19601f8201168201806040525081019061061191906110a8565b6001600160a01b03161461065e5760405162461bcd60e51b8152602060048201526014602482015273125d195b481a5cc81b9bdd08185c1c1c9bdd995960621b604482015260640161036e565b6000546040516331a9108f60e11b81526004810186905230916001600160a01b031690636352211e9060240160206040518083038186803b1580156106a257600080fd5b505afa1580156106b6573d6000803e3d6000fd5b505050506040513d601f19601f820116820180604052508101906106da91906110a8565b6001600160a01b031614156107315760405162461bcd60e51b815260206004820152601760248201527f4f6e6c79206f776e65722063616e206c697374204e4654000000000000000000604482015260640161036e565b600080546040516331a9108f60e11b8152600481018790526001600160a01b0390911690636352211e9060240160206040518083038186803b15801561077657600080fd5b505afa15801561078a573d6000803e3d6000fd5b505050506040513d601f19601f820116820180604052508101906107ae91906110a8565b6001600160a01b031614156107fc5760405162461bcd60e51b8152602060048201526014602482015273125d195b481a185cc81d1bc8189948195e1a5cdd60621b604482015260640161036e565b505060009182526009602052604090912060038101805460ff1916600117905560020155565b6004818154811061083257600080fd5b600091825260209091200154905081565b60086020526000908152604090208054819061085e906110c5565b80601f016020809104026020016040519081016040528092919081815260200182805461088a906110c5565b80156108d75780601f106108ac576101008083540402835291602001916108d7565b820191906000526020600020905b8154815290600101906020018083116108ba57829003601f168201915b5050505050905081565b60008054604051636902622f60e11b81526001600160a01b039091169063d204c45e906109149033908690600401611100565b602060405180830381600087803b15801561092e57600080fd5b505af1158015610942573d6000803e3d6000fd5b505050506040513d601f19601f820116820180604052508101906109669190611124565b60408051608081018252828152602080820187815260008385018181526060808601838152888452600986528784209651875593516001808801919091559151600287015592516003909501805460ff19169515159590951790945560058054948501815581527f036b6384b5eca791c62761152d0c79bb0604c104a5fb6f4eb0703f3154bb3db090930185905583518881529182018390529281019190915291925082917f1f8a78f37c7525d9749c7e0770d28c68f4ed228c9731fa9669872988b6d11c37910160405180910390a2505050565b6005818154811061083257600080fd5b60008181526009602052604090206002015434811115610aa55760405162461bcd60e51b8152602060048201526015602482015274139bdd08195b9bdd59da08199d5b991cc81cd95b9d605a1b604482015260640161036e565b6000546040516331a9108f60e11b8152600481018490526001600160a01b0390911690636352211e9060240160206040518083038186803b158015610ae957600080fd5b505afa158015610afd573d6000803e3d6000fd5b505050506040513d601f19601f82011682018060405250810190610b2191906110a8565b6001600160a01b0316336001600160a01b03161415610b915760405162461bcd60e51b815260206004820152602660248201527f53656e64657220686173206e6f7420746f20746865206f776e6572206f6620746044820152651a194813919560d21b606482015260840161036e565b600082815260096020526040808220600301805460ff19169055905490516331a9108f60e11b8152600481018490526001600160a01b03909116906323b872dd908290636352211e9060240160206040518083038186803b158015610bf557600080fd5b505afa158015610c09573d6000803e3d6000fd5b505050506040513d601f19601f82011682018060405250810190610c2d91906110a8565b6040516001600160e01b031960e084901b1681526001600160a01b03909116600482015233602482015260448101859052606401600060405180830381600087803b158015610c7b57600080fd5b505af1158015610c8f573d6000803e3d6000fd5b5050600080546040516331a9108f60e11b8152600481018790529193506001600160a01b03169150636352211e9060240160206040518083038186803b158015610cd857600080fd5b505afa158015610cec573d6000803e3d6000fd5b505050506040513d601f19601f82011682018060405250810190610d1091906110a8565b9050806001600160a01b03166108fc60025434610d2d9190611153565b6040518115909202916000818181858888f19350505050158015610d55573d6000803e3d6000fd5b50600254600080546040516331a9108f60e11b815260048101879052600a92916001600160a01b031690636352211e9060240160206040518083038186803b158015610da057600080fd5b505afa158015610db4573d6000803e3d6000fd5b505050506040513d601f19601f82011682018060405250810190610dd891906110a8565b6001600160a01b03166001600160a01b031681526020019081526020016000206000828254610e07919061116a565b9091555050505050565b828054610e1d906110c5565b90600052602060002090601f016020900481019282610e3f5760008555610e85565b82601f10610e5857805160ff1916838001178555610e85565b82800160010185558215610e85579182015b82811115610e85578251825591602001919060010190610e6a565b50610e91929150610e95565b5090565b5b80821115610e915760008155600101610e96565b634e487b7160e01b600052604160045260246000fd5b600082601f830112610ed157600080fd5b813567ffffffffffffffff80821115610eec57610eec610eaa565b604051601f8301601f19908116603f01168101908282118183101715610f1457610f14610eaa565b81604052838152866020858801011115610f2d57600080fd5b836020870160208301376000602085830101528094505050505092915050565b600060208284031215610f5f57600080fd5b813567ffffffffffffffff811115610f7657600080fd5b610f8284828501610ec0565b949350505050565b600060208284031215610f9c57600080fd5b5035919050565b6001600160a01b0381168114610fb857600080fd5b50565b600060208284031215610fcd57600080fd5b8135610fd881610fa3565b9392505050565b60008060408385031215610ff257600080fd5b50508035926020909101359150565b6000815180845260005b818110156110275760208185018101518683018201520161100b565b81811115611039576000602083870101525b50601f01601f19169290920160200192915050565b602081526000610fd86020830184611001565b6000806040838503121561107457600080fd5b82359150602083013567ffffffffffffffff81111561109257600080fd5b61109e85828601610ec0565b9150509250929050565b6000602082840312156110ba57600080fd5b8151610fd881610fa3565b600181811c908216806110d957607f821691505b602082108114156110fa57634e487b7160e01b600052602260045260246000fd5b50919050565b6001600160a01b0383168152604060208201819052600090610f8290830184611001565b60006020828403121561113657600080fd5b5051919050565b634e487b7160e01b600052601160045260246000fd5b6000828210156111655761116561113d565b500390565b6000821982111561117d5761117d61113d565b50019056fea2646970667358221220ec4d8bebbb76d41086f39ddf6fb71daac74ba7ce27f2b872eec41a399dea8b1864736f6c63430008090033",
  "linkReferences": {},
  "deployedLinkReferences": {}
}